{"abi":[{"type":"constructor","inputs":[{"name":"_platformAddress","type":"address","internalType":"address"},{"name":"_defaultOwner","type":"address","internalType":"address"}],"stateMutability":"nonpayable"},{"type":"function","name":"defaultOwner","inputs":[],"outputs":[{"name":"","type":"address","internalType":"address"}],"stateMutability":"view"},{"type":"function","name":"deployEscrow","inputs":[{"name":"merchantId","type":"bytes32","internalType":"bytes32"},{"name":"merchantAddress","type":"address","internalType":"address"},{"name":"paymentTokenAddress","type":"address","internalType":"address"}],"outputs":[{"name":"escrowAddress","type":"address","internalType":"address"}],"stateMutability":"nonpayable"},{"type":"function","name":"escrowExists","inputs":[{"name":"","type":"address","internalType":"address"}],"outputs":[{"name":"","type":"bool","internalType":"bool"}],"stateMutability":"view"},{"type":"function","name":"escrowToMerchant","inputs":[{"name":"","type":"address","internalType":"address"}],"outputs":[{"name":"","type":"bytes32","internalType":"bytes32"}],"stateMutability":"view"},{"type":"function","name":"getEscrowsForMerchant","inputs":[{"name":"merchantId","type":"bytes32","internalType":"bytes32"}],"outputs":[{"name":"escrowAddresses","type":"address[]","internalType":"address[]"}],"stateMutability":"view"},{"type":"function","name":"getMerchantCounter","inputs":[{"name":"merchantId","type":"bytes32","internalType":"bytes32"}],"outputs":[{"name":"counter","type":"uint256","internalType":"uint256"}],"stateMutability":"view"},{"type":"function","name":"getMerchantEscrowCount","inputs":[{"name":"merchantId","type":"bytes32","internalType":"bytes32"}],"outputs":[{"name":"count","type":"uint256","internalType":"uint256"}],"stateMutability":"view"},{"type":"function","name":"getMerchantForEscrow","inputs":[{"name":"escrowAddress","type":"address","internalType":"address"}],"outputs":[{"name":"merchantId","type":"bytes32","internalType":"bytes32"}],"stateMutability":"view"},{"type":"function","name":"merchantCounters","inputs":[{"name":"","type":"bytes32","internalType":"bytes32"}],"outputs":[{"name":"","type":"uint256","internalType":"uint256"}],"stateMutability":"view"},{"type":"function","name":"merchantEscrows","inputs":[{"name":"","type":"bytes32","internalType":"bytes32"},{"name":"","type":"uint256","internalType":"uint256"}],"outputs":[{"name":"","type":"address","internalType":"address"}],"stateMutability":"view"},{"type":"function","name":"merchantExists","inputs":[{"name":"merchantId","type":"bytes32","internalType":"bytes32"}],"outputs":[{"name":"exists","type":"bool","internalType":"bool"}],"stateMutability":"view"},{"type":"function","name":"owner","inputs":[],"outputs":[{"name":"","type":"address","internalType":"address"}],"stateMutability":"view"},{"type":"function","name":"pause","inputs":[],"outputs":[],"stateMutability":"nonpayable"},{"type":"function","name":"paused","inputs":[],"outputs":[{"name":"","type":"bool","internalType":"bool"}],"stateMutability":"view"},{"type":"function","name":"platformAddress","inputs":[],"outputs":[{"name":"","type":"address","internalType":"address"}],"stateMutability":"view"},{"type":"function","name":"predictEscrowAddress","inputs":[{"name":"merchantId","type":"bytes32","internalType":"bytes32"},{"name":"merchantAddress","type":"address","internalType":"address"},{"name":"paymentTokenAddress","type":"address","internalType":"address"}],"outputs":[{"name":"predictedAddress","type":"address","internalType":"address"}],"stateMutability":"view"},{"type":"function","name":"renounceOwnership","inputs":[],"outputs":[],"stateMutability":"nonpayable"},{"type":"function","name":"setDefaultOwner","inputs":[{"name":"_defaultOwner","type":"address","internalType":"address"}],"outputs":[],"stateMutability":"nonpayable"},{"type":"function","name":"setPlatformAddress","inputs":[{"name":"_platformAddress","type":"address","internalType":"address"}],"outputs":[],"stateMutability":"nonpayable"},{"type":"function","name":"transferOwnership","inputs":[{"name":"newOwner","type":"address","internalType":"address"}],"outputs":[],"stateMutability":"nonpayable"},{"type":"function","name":"unpause","inputs":[],"outputs":[],"stateMutability":"nonpayable"},{"type":"event","name":"DefaultOwnerUpdated","inputs":[{"name":"oldOwner","type":"address","indexed":false,"internalType":"address"},{"name":"newOwner","type":"address","indexed":false,"internalType":"address"}],"anonymous":false},{"type":"event","name":"EscrowDeployed","inputs":[{"name":"merchantId","type":"bytes32","indexed":true,"internalType":"bytes32"},{"name":"escrowAddress","type":"address","indexed":true,"internalType":"address"},{"name":"counter","type":"uint256","indexed":false,"internalType":"uint256"},{"name":"paymentToken","type":"address","indexed":false,"internalType":"address"}],"anonymous":false},{"type":"event","name":"MerchantRegistered","inputs":[{"name":"merchantId","type":"bytes32","indexed":true,"internalType":"bytes32"}],"anonymous":false},{"type":"event","name":"OwnershipTransferred","inputs":[{"name":"previousOwner","type":"address","indexed":true,"internalType":"address"},{"name":"newOwner","type":"address","indexed":true,"internalType":"address"}],"anonymous":false},{"type":"event","name":"Paused","inputs":[{"name":"account","type":"address","indexed":false,"internalType":"address"}],"anonymous":false},{"type":"event","name":"PlatformAddressUpdated","inputs":[{"name":"oldAddress","type":"address","indexed":false,"internalType":"address"},{"name":"newAddress","type":"address","indexed":false,"internalType":"address"}],"anonymous":false},{"type":"event","name":"Unpaused","inputs":[{"name":"account","type":"address","indexed":false,"internalType":"address"}],"anonymous":false},{"type":"error","name":"DeploymentFailed","inputs":[]},{"type":"error","name":"EnforcedPause","inputs":[]},{"type":"error","name":"EscrowNotFound","inputs":[]},{"type":"error","name":"ExpectedPause","inputs":[]},{"type":"error","name":"InvalidAddress","inputs":[]},{"type":"error","name":"MerchantNotFound","inputs":[]},{"type":"error","name":"OwnableInvalidOwner","inputs":[{"name":"owner","type":"address","internalType":"address"}]},{"type":"error","name":"OwnableUnauthorizedAccount","inputs":[{"name":"account","type":"address","internalType":"address"}]}],"bytecode":{"object":"0x608060405234801561001057600080fd5b5060405161335638038061335683398181016040528101906100329190610303565b33600073ffffffffffffffffffffffffffffffffffffffff168173ffffffffffffffffffffffffffffffffffffffff16036100a55760006040517f1e4fbdf700000000000000000000000000000000000000000000000000000000815260040161009c9190610352565b60405180910390fd5b6100b4816101dc60201b60201c565b50600073ffffffffffffffffffffffffffffffffffffffff168273ffffffffffffffffffffffffffffffffffffffff16148061011c5750600073ffffffffffffffffffffffffffffffffffffffff168173ffffffffffffffffffffffffffffffffffffffff16145b15610153576040517fe6c4247b00000000000000000000000000000000000000000000000000000000815260040160405180910390fd5b81600560006101000a81548173ffffffffffffffffffffffffffffffffffffffff021916908373ffffffffffffffffffffffffffffffffffffffff16021790555080600660006101000a81548173ffffffffffffffffffffffffffffffffffffffff021916908373ffffffffffffffffffffffffffffffffffffffff160217905550505061036d565b60008060009054906101000a900473ffffffffffffffffffffffffffffffffffffffff169050816000806101000a81548173ffffffffffffffffffffffffffffffffffffffff021916908373ffffffffffffffffffffffffffffffffffffffff1602179055508173ffffffffffffffffffffffffffffffffffffffff168173ffffffffffffffffffffffffffffffffffffffff167f8be0079c531659141344cd1fd0a4f28419497f9722a3daafe3b4186f6b6457e060405160405180910390a35050565b600080fd5b600073ffffffffffffffffffffffffffffffffffffffff82169050919050565b60006102d0826102a5565b9050919050565b6102e0816102c5565b81146102eb57600080fd5b50565b6000815190506102fd816102d7565b92915050565b6000806040838503121561031a576103196102a0565b5b6000610328858286016102ee565b9250506020610339858286016102ee565b9150509250929050565b61034c816102c5565b82525050565b60006020820190506103676000830184610343565b92915050565b612fda8061037c6000396000f3fe608060405234801561001057600080fd5b50600436106101375760003560e01c8063b582b47b116100b8578063e58eb8311161007c578063e58eb8311461032a578063ea73adee1461035a578063f23353b41461038a578063f2fde38b146103ba578063f7cc10d6146103d6578063fbb91dcd1461040657610137565b8063b582b47b14610274578063cc03c342146102a4578063dbe55e56146102c0578063dfd85394146102de578063e3ebd115146102fa57610137565b80635c975abb116100ff5780635c975abb146101f4578063715018a6146102125780637d98dc071461021c5780638456cb591461024c5780638da5cb5b1461025657610137565b8063130126a41461013c57806317de2f1f1461016c5780633e8dd53f1461018a5780633f4ba83a146101ba578063579a7e9b146101c4575b600080fd5b61015660048036038101906101519190611232565b610436565b6040516101639190611278565b60405180910390f35b610174610456565b60405161018191906112d4565b60405180910390f35b6101a4600480360381019061019f9190611232565b61047c565b6040516101b19190611278565b60405180910390f35b6101c2610494565b005b6101de60048036038101906101d9919061131b565b6104a6565b6040516101eb9190611357565b60405180910390f35b6101fc610572565b604051610209919061138d565b60405180910390f35b61021a610588565b005b610236600480360381019061023191906113a8565b61059c565b60405161024391906112d4565b60405180910390f35b610254610999565b005b61025e6109ab565b60405161026b91906112d4565b60405180910390f35b61028e6004803603810190610289919061131b565b6109d4565b60405161029b9190611357565b60405180910390f35b6102be60048036038101906102b9919061131b565b6109ec565b005b6102c8610aff565b6040516102d591906112d4565b60405180910390f35b6102f860048036038101906102f3919061131b565b610b25565b005b610314600480360381019061030f91906113a8565b610c38565b60405161032191906112d4565b60405180910390f35b610344600480360381019061033f9190611232565b610d7d565b60405161035191906114b9565b60405180910390f35b610374600480360381019061036f919061131b565b610e1e565b604051610381919061138d565b60405180910390f35b6103a4600480360381019061039f9190611232565b610e3e565b6040516103b1919061138d565b60405180910390f35b6103d460048036038101906103cf919061131b565b610e60565b005b6103f060048036038101906103eb9190611232565b610ee6565b6040516103fd9190611278565b60405180910390f35b610420600480360381019061041b9190611507565b610f03565b60405161042d91906112d4565b60405180910390f35b600060016000838152602001908152602001600020805490509050919050565b600660009054906101000a900473ffffffffffffffffffffffffffffffffffffffff1681565b60026020528060005260406000206000915090505481565b61049c610f51565b6104a4610fd8565b565b6000600460008373ffffffffffffffffffffffffffffffffffffffff1673ffffffffffffffffffffffffffffffffffffffff16815260200190815260200160002060009054906101000a900460ff1661052b576040517ff1d80ab100000000000000000000000000000000000000000000000000000000815260040160405180910390fd5b600360008373ffffffffffffffffffffffffffffffffffffffff1673ffffffffffffffffffffffffffffffffffffffff168152602001908152602001600020549050919050565b60008060149054906101000a900460ff16905090565b610590610f51565b61059a600061103a565b565b60006105a6610f51565b6105ae6110fe565b600073ffffffffffffffffffffffffffffffffffffffff168373ffffffffffffffffffffffffffffffffffffffff1614806106155750600073ffffffffffffffffffffffffffffffffffffffff168273ffffffffffffffffffffffffffffffffffffffff16145b1561064c576040517fe6c4247b00000000000000000000000000000000000000000000000000000000815260040160405180910390fd5b6000600260008681526020019081526020016000205490506001816106719190611576565b60026000878152602001908152602001600020819055506000858260405160200161069d9291906115ec565b6040516020818303038152906040528051906020012090506000604051806020016106c7906111ea565b6020820181038252601f19601f820116604052508686600560009054906101000a900473ffffffffffffffffffffffffffffffffffffffff16600660009054906101000a900473ffffffffffffffffffffffffffffffffffffffff166040516020016107369493929190611618565b6040516020818303038152906040526040516020016107569291906116ce565b6040516020818303038152906040529050818151602083016000f593508361077d57600080fd5b600073ffffffffffffffffffffffffffffffffffffffff168473ffffffffffffffffffffffffffffffffffffffff16036107e3576040517f3011642500000000000000000000000000000000000000000000000000000000815260040160405180910390fd5b60016000888152602001908152602001600020849080600181540180825580915050600190039060005260206000200160009091909190916101000a81548173ffffffffffffffffffffffffffffffffffffffff021916908373ffffffffffffffffffffffffffffffffffffffff16021790555086600360008673ffffffffffffffffffffffffffffffffffffffff1673ffffffffffffffffffffffffffffffffffffffff168152602001908152602001600020819055506001600460008673ffffffffffffffffffffffffffffffffffffffff1673ffffffffffffffffffffffffffffffffffffffff16815260200190815260200160002060006101000a81548160ff0219169083151502179055506001806000898152602001908152602001600020805490500361093e57867f2511368660a192c40b114d50f91cb3c1f2287ddc3dc8455d6425dfed6d8f29db60405160405180910390a25b8373ffffffffffffffffffffffffffffffffffffffff16877f951316cebf88324ca31e4a09edb8a090f8009e4a5548b8054bf7296eb0aeb68f85886040516109879291906116f2565b60405180910390a35050509392505050565b6109a1610f51565b6109a961113f565b565b60008060009054906101000a900473ffffffffffffffffffffffffffffffffffffffff16905090565b60036020528060005260406000206000915090505481565b6109f4610f51565b600073ffffffffffffffffffffffffffffffffffffffff168173ffffffffffffffffffffffffffffffffffffffff1603610a5a576040517fe6c4247b00000000000000000000000000000000000000000000000000000000815260040160405180910390fd5b6000600560009054906101000a900473ffffffffffffffffffffffffffffffffffffffff16905081600560006101000a81548173ffffffffffffffffffffffffffffffffffffffff021916908373ffffffffffffffffffffffffffffffffffffffff1602179055507f98a658829c402c9165360ccdcf4bfb731b08f78bcd9aa1b584cc4bbcb90024198183604051610af392919061171b565b60405180910390a15050565b600560009054906101000a900473ffffffffffffffffffffffffffffffffffffffff1681565b610b2d610f51565b600073ffffffffffffffffffffffffffffffffffffffff168173ffffffffffffffffffffffffffffffffffffffff1603610b93576040517fe6c4247b00000000000000000000000000000000000000000000000000000000815260040160405180910390fd5b6000600660009054906101000a900473ffffffffffffffffffffffffffffffffffffffff16905081600660006101000a81548173ffffffffffffffffffffffffffffffffffffffff021916908373ffffffffffffffffffffffffffffffffffffffff1602179055507fe0b6c6e6669e1d7eba473f02cb13c2567a774584c40389398903599ce709681c8183604051610c2c92919061171b565b60405180910390a15050565b6000806002600086815260200190815260200160002054905060008582604051602001610c669291906115ec565b604051602081830303815290604052805190602001209050600060405180602001610c90906111ea565b6020820181038252601f19601f820116604052508686600560009054906101000a900473ffffffffffffffffffffffffffffffffffffffff16600660009054906101000a900473ffffffffffffffffffffffffffffffffffffffff16604051602001610cff9493929190611618565b604051602081830303815290604052604051602001610d1f9291906116ce565b6040516020818303038152906040529050600060ff60f81b30848480519060200120604051602001610d5494939291906117d9565b6040516020818303038152906040528051906020012090508060001c9450505050509392505050565b606060016000838152602001908152602001600020805480602002602001604051908101604052809291908181526020018280548015610e1257602002820191906000526020600020905b8160009054906101000a900473ffffffffffffffffffffffffffffffffffffffff1673ffffffffffffffffffffffffffffffffffffffff1681526020019060010190808311610dc8575b50505050509050919050565b60046020528060005260406000206000915054906101000a900460ff1681565b6000806001600084815260200190815260200160002080549050119050919050565b610e68610f51565b600073ffffffffffffffffffffffffffffffffffffffff168173ffffffffffffffffffffffffffffffffffffffff1603610eda5760006040517f1e4fbdf7000000000000000000000000000000000000000000000000000000008152600401610ed191906112d4565b60405180910390fd5b610ee38161103a565b50565b600060026000838152602001908152602001600020549050919050565b60016020528160005260406000208181548110610f1f57600080fd5b906000526020600020016000915091509054906101000a900473ffffffffffffffffffffffffffffffffffffffff1681565b610f596111a2565b73ffffffffffffffffffffffffffffffffffffffff16610f776109ab565b73ffffffffffffffffffffffffffffffffffffffff1614610fd657610f9a6111a2565b6040517f118cdaa7000000000000000000000000000000000000000000000000000000008152600401610fcd91906112d4565b60405180910390fd5b565b610fe06111aa565b60008060146101000a81548160ff0219169083151502179055507f5db9ee0a495bf2e6ff9c91a7834c1ba4fdd244a5e8aa4e537bd38aeae4b073aa6110236111a2565b60405161103091906112d4565b60405180910390a1565b60008060009054906101000a900473ffffffffffffffffffffffffffffffffffffffff169050816000806101000a81548173ffffffffffffffffffffffffffffffffffffffff021916908373ffffffffffffffffffffffffffffffffffffffff1602179055508173ffffffffffffffffffffffffffffffffffffffff168173ffffffffffffffffffffffffffffffffffffffff167f8be0079c531659141344cd1fd0a4f28419497f9722a3daafe3b4186f6b6457e060405160405180910390a35050565b611106610572565b1561113d576040517fd93c066500000000000000000000000000000000000000000000000000000000815260040160405180910390fd5b565b6111476110fe565b6001600060146101000a81548160ff0219169083151502179055507f62e78cea01bee320cd4e420270b5ea74000d11b0c9f74754ebdbfc544b05a25861118b6111a2565b60405161119891906112d4565b60405180910390a1565b600033905090565b6111b2610572565b6111e8576040517f8dfc202b00000000000000000000000000000000000000000000000000000000815260040160405180910390fd5b565b61177d8061182883390190565b600080fd5b6000819050919050565b61120f816111fc565b811461121a57600080fd5b50565b60008135905061122c81611206565b92915050565b600060208284031215611248576112476111f7565b5b60006112568482850161121d565b91505092915050565b6000819050919050565b6112728161125f565b82525050565b600060208201905061128d6000830184611269565b92915050565b600073ffffffffffffffffffffffffffffffffffffffff82169050919050565b60006112be82611293565b9050919050565b6112ce816112b3565b82525050565b60006020820190506112e960008301846112c5565b92915050565b6112f8816112b3565b811461130357600080fd5b50565b600081359050611315816112ef565b92915050565b600060208284031215611331576113306111f7565b5b600061133f84828501611306565b91505092915050565b611351816111fc565b82525050565b600060208201905061136c6000830184611348565b92915050565b60008115159050919050565b61138781611372565b82525050565b60006020820190506113a2600083018461137e565b92915050565b6000806000606084860312156113c1576113c06111f7565b5b60006113cf8682870161121d565b93505060206113e086828701611306565b92505060406113f186828701611306565b9150509250925092565b600081519050919050565b600082825260208201905092915050565b6000819050602082019050919050565b611430816112b3565b82525050565b60006114428383611427565b60208301905092915050565b6000602082019050919050565b6000611466826113fb565b6114708185611406565b935061147b83611417565b8060005b838110156114ac5781516114938882611436565b975061149e8361144e565b92505060018101905061147f565b5085935050505092915050565b600060208201905081810360008301526114d3818461145b565b905092915050565b6114e48161125f565b81146114ef57600080fd5b50565b600081359050611501816114db565b92915050565b6000806040838503121561151e5761151d6111f7565b5b600061152c8582860161121d565b925050602061153d858286016114f2565b9150509250929050565b7f4e487b7100000000000000000000000000000000000000000000000000000000600052601160045260246000fd5b60006115818261125f565b915061158c8361125f565b92508282019050808211156115a4576115a3611547565b5b92915050565b6000819050919050565b6115c56115c0826111fc565b6115aa565b82525050565b6000819050919050565b6115e66115e18261125f565b6115cb565b82525050565b60006115f882856115b4565b60208201915061160882846115d5565b6020820191508190509392505050565b600060808201905061162d60008301876112c5565b61163a60208301866112c5565b61164760408301856112c5565b61165460608301846112c5565b95945050505050565b600081519050919050565b600081905092915050565b60005b83811015611691578082015181840152602081019050611676565b60008484015250505050565b60006116a88261165d565b6116b28185611668565b93506116c2818560208601611673565b80840191505092915050565b60006116da828561169d565b91506116e6828461169d565b91508190509392505050565b60006040820190506117076000830185611269565b61171460208301846112c5565b9392505050565b600060408201905061173060008301856112c5565b61173d60208301846112c5565b9392505050565b60007fff0000000000000000000000000000000000000000000000000000000000000082169050919050565b6000819050919050565b61178b61178682611744565b611770565b82525050565b60008160601b9050919050565b60006117a982611791565b9050919050565b60006117bb8261179e565b9050919050565b6117d36117ce826112b3565b6117b0565b82525050565b60006117e5828761177a565b6001820191506117f582866117c2565b60148201915061180582856115b4565b60208201915061181582846115b4565b6020820191508190509594505050505056fe608060405234801561001057600080fd5b5060405161177d38038061177d833981810160405281019061003291906103cd565b80600073ffffffffffffffffffffffffffffffffffffffff168173ffffffffffffffffffffffffffffffffffffffff16036100a55760006040517f1e4fbdf700000000000000000000000000000000000000000000000000000000815260040161009c9190610443565b60405180910390fd5b6100b4816102a660201b60201c565b5060018081905550600073ffffffffffffffffffffffffffffffffffffffff168473ffffffffffffffffffffffffffffffffffffffff1614806101235750600073ffffffffffffffffffffffffffffffffffffffff168373ffffffffffffffffffffffffffffffffffffffff16145b8061015a5750600073ffffffffffffffffffffffffffffffffffffffff168273ffffffffffffffffffffffffffffffffffffffff16145b15610191576040517fe6c4247b00000000000000000000000000000000000000000000000000000000815260040160405180910390fd5b83600260016101000a81548173ffffffffffffffffffffffffffffffffffffffff021916908373ffffffffffffffffffffffffffffffffffffffff16021790555081600460006101000a81548173ffffffffffffffffffffffffffffffffffffffff021916908373ffffffffffffffffffffffffffffffffffffffff16021790555082600360006101000a81548173ffffffffffffffffffffffffffffffffffffffff021916908373ffffffffffffffffffffffffffffffffffffffff16021790555082600560006101000a81548173ffffffffffffffffffffffffffffffffffffffff021916908373ffffffffffffffffffffffffffffffffffffffff16021790555060fa6006819055505050505061045e565b60008060009054906101000a900473ffffffffffffffffffffffffffffffffffffffff169050816000806101000a81548173ffffffffffffffffffffffffffffffffffffffff021916908373ffffffffffffffffffffffffffffffffffffffff1602179055508173ffffffffffffffffffffffffffffffffffffffff168173ffffffffffffffffffffffffffffffffffffffff167f8be0079c531659141344cd1fd0a4f28419497f9722a3daafe3b4186f6b6457e060405160405180910390a35050565b600080fd5b600073ffffffffffffffffffffffffffffffffffffffff82169050919050565b600061039a8261036f565b9050919050565b6103aa8161038f565b81146103b557600080fd5b50565b6000815190506103c7816103a1565b92915050565b600080600080608085870312156103e7576103e661036a565b5b60006103f5878288016103b8565b9450506020610406878288016103b8565b9350506040610417878288016103b8565b9250506060610428878288016103b8565b91505092959194509250565b61043d8161038f565b82525050565b60006020820190506104586000830184610434565b92915050565b6113108061046d6000396000f3fe608060405234801561001057600080fd5b506004361061012c5760003560e01c80639df8ed43116100ad578063dbe55e5611610071578063dbe55e56146102b3578063e1f1c4a7146102d1578063e4fc6b6d146102ef578063f2fde38b146102f9578063f97ffc50146103155761012c565b80639df8ed431461021f578063a3eb6e5b1461023d578063afb18fe71461025b578063c58bfb6614610279578063cc03c342146102975761012c565b80635c975abb116100f45780635c975abb146101b15780636ea8bc10146101cf578063715018a6146101ed5780638456cb59146101f75780638da5cb5b146102015761012c565b806312e8e2c3146101315780633013ce291461014d5780633998a6811461016b5780633c0c4566146101895780633f4ba83a146101a7575b600080fd5b61014b60048036038101906101469190610f03565b610331565b005b6101556103c8565b6040516101629190610faf565b60405180910390f35b6101736103ee565b6040516101809190610fd9565b60405180910390f35b6101916103f4565b60405161019e9190611015565b60405180910390f35b6101af61041e565b005b6101b961046e565b6040516101c6919061104b565b60405180910390f35b6101d7610485565b6040516101e49190610fd9565b60405180910390f35b6101f561048f565b005b6101ff6104a3565b005b6102096104f3565b6040516102169190611015565b60405180910390f35b61022761051c565b6040516102349190611015565b60405180910390f35b610245610542565b6040516102529190611015565b60405180910390f35b61026361056c565b6040516102709190611015565b60405180910390f35b610281610592565b60405161028e9190610fd9565b60405180910390f35b6102b160048036038101906102ac9190611092565b610598565b005b6102bb6106ab565b6040516102c89190611015565b60405180910390f35b6102d96106d1565b6040516102e69190610fd9565b60405180910390f35b6102f76106d7565b005b610313600480360381019061030e9190611092565b610a46565b005b61032f600480360381019061032a9190611092565b610acc565b005b610339610bdf565b610341610c66565b61138881111561037d576040517f52338c8000000000000000000000000000000000000000000000000000000000815260040160405180910390fd5b60006006549050816006819055507fd347e206f25a89b917fc9482f1a2d294d749baa4dc9bde7fb495ee11fe49164381836040516103bc9291906110bf565b60405180910390a15050565b600560009054906101000a900473ffffffffffffffffffffffffffffffffffffffff1681565b61138881565b6000600460009054906101000a900473ffffffffffffffffffffffffffffffffffffffff16905090565b610426610bdf565b61042e610ca7565b7f5b65b0c1363b3003db9bcc5e1fd8805a6d6bf5bf6dc9d3431ee4494cd7d11766610457610d0a565b6040516104649190611015565b60405180910390a1565b6000600260009054906101000a900460ff16905090565b6000600654905090565b610497610bdf565b6104a16000610d12565b565b6104ab610bdf565b6104b3610dd6565b7f81990fd9a5c552b8e3677917d8a03c07678f0d2cb68f88b634aca2022e9bd19f6104dc610d0a565b6040516104e99190611015565b60405180910390a1565b60008060009054906101000a900473ffffffffffffffffffffffffffffffffffffffff16905090565b600260019054906101000a900473ffffffffffffffffffffffffffffffffffffffff1681565b6000600260019054906101000a900473ffffffffffffffffffffffffffffffffffffffff16905090565b600360009054906101000a900473ffffffffffffffffffffffffffffffffffffffff1681565b60065481565b6105a0610bdf565b600073ffffffffffffffffffffffffffffffffffffffff168173ffffffffffffffffffffffffffffffffffffffff1603610606576040517fe6c4247b00000000000000000000000000000000000000000000000000000000815260040160405180910390fd5b6000600460009054906101000a900473ffffffffffffffffffffffffffffffffffffffff16905081600460006101000a81548173ffffffffffffffffffffffffffffffffffffffff021916908373ffffffffffffffffffffffffffffffffffffffff1602179055507f98a658829c402c9165360ccdcf4bfb731b08f78bcd9aa1b584cc4bbcb9002419818360405161069f9291906110e8565b60405180910390a15050565b600460009054906101000a900473ffffffffffffffffffffffffffffffffffffffff1681565b61271081565b6106df610e39565b6106e7610c66565b6000600560009054906101000a900473ffffffffffffffffffffffffffffffffffffffff1673ffffffffffffffffffffffffffffffffffffffff166370a08231306040518263ffffffff1660e01b81526004016107449190611015565b602060405180830381865afa158015610761573d6000803e3d6000fd5b505050506040513d601f19601f820116820180604052508101906107859190611126565b9050600081036107c1576040517f0d7e7ce800000000000000000000000000000000000000000000000000000000815260040160405180910390fd5b6000612710600654836107d49190611182565b6107de91906111f3565b9050600081836107ee9190611224565b905060008211156108f8576000600560009054906101000a900473ffffffffffffffffffffffffffffffffffffffff1673ffffffffffffffffffffffffffffffffffffffff1663a9059cbb600460009054906101000a900473ffffffffffffffffffffffffffffffffffffffff16856040518363ffffffff1660e01b815260040161087a929190611258565b6020604051808303816000875af1158015610899573d6000803e3d6000fd5b505050506040513d601f19601f820116820180604052508101906108bd91906112ad565b9050806108f6576040517f90b8ec1800000000000000000000000000000000000000000000000000000000815260040160405180910390fd5b505b6000811115610a00576000600560009054906101000a900473ffffffffffffffffffffffffffffffffffffffff1673ffffffffffffffffffffffffffffffffffffffff1663a9059cbb600260019054906101000a900473ffffffffffffffffffffffffffffffffffffffff16846040518363ffffffff1660e01b8152600401610982929190611258565b6020604051808303816000875af11580156109a1573d6000803e3d6000fd5b505050506040513d601f19601f820116820180604052508101906109c591906112ad565b9050806109fe576040517f90b8ec1800000000000000000000000000000000000000000000000000000000815260040160405180910390fd5b505b7f40d8c854b6d5329fd5fccae04f5a931d7529963fbab81aced7337394e737cb4d8282604051610a319291906110bf565b60405180910390a1505050610a44610e7f565b565b610a4e610bdf565b600073ffffffffffffffffffffffffffffffffffffffff168173ffffffffffffffffffffffffffffffffffffffff1603610ac05760006040517f1e4fbdf7000000000000000000000000000000000000000000000000000000008152600401610ab79190611015565b60405180910390fd5b610ac981610d12565b50565b610ad4610bdf565b600073ffffffffffffffffffffffffffffffffffffffff168173ffffffffffffffffffffffffffffffffffffffff1603610b3a576040517fe6c4247b00000000000000000000000000000000000000000000000000000000815260040160405180910390fd5b6000600260019054906101000a900473ffffffffffffffffffffffffffffffffffffffff16905081600260016101000a81548173ffffffffffffffffffffffffffffffffffffffff021916908373ffffffffffffffffffffffffffffffffffffffff1602179055507fb2957f4a5be3a3e131df2d649d041ee6b35af38749bdda44eac9afa36a698be78183604051610bd39291906110e8565b60405180910390a15050565b610be7610d0a565b73ffffffffffffffffffffffffffffffffffffffff16610c056104f3565b73ffffffffffffffffffffffffffffffffffffffff1614610c6457610c28610d0a565b6040517f118cdaa7000000000000000000000000000000000000000000000000000000008152600401610c5b9190611015565b60405180910390fd5b565b610c6e61046e565b15610ca5576040517fd93c066500000000000000000000000000000000000000000000000000000000815260040160405180910390fd5b565b610caf610e88565b6000600260006101000a81548160ff0219169083151502179055507f5db9ee0a495bf2e6ff9c91a7834c1ba4fdd244a5e8aa4e537bd38aeae4b073aa610cf3610d0a565b604051610d009190611015565b60405180910390a1565b600033905090565b60008060009054906101000a900473ffffffffffffffffffffffffffffffffffffffff169050816000806101000a81548173ffffffffffffffffffffffffffffffffffffffff021916908373ffffffffffffffffffffffffffffffffffffffff1602179055508173ffffffffffffffffffffffffffffffffffffffff168173ffffffffffffffffffffffffffffffffffffffff167f8be0079c531659141344cd1fd0a4f28419497f9722a3daafe3b4186f6b6457e060405160405180910390a35050565b610dde610c66565b6001600260006101000a81548160ff0219169083151502179055507f62e78cea01bee320cd4e420270b5ea74000d11b0c9f74754ebdbfc544b05a258610e22610d0a565b604051610e2f9190611015565b60405180910390a1565b600260015403610e75576040517f3ee5aeb500000000000000000000000000000000000000000000000000000000815260040160405180910390fd5b6002600181905550565b60018081905550565b610e9061046e565b610ec6576040517f8dfc202b00000000000000000000000000000000000000000000000000000000815260040160405180910390fd5b565b600080fd5b6000819050919050565b610ee081610ecd565b8114610eeb57600080fd5b50565b600081359050610efd81610ed7565b92915050565b600060208284031215610f1957610f18610ec8565b5b6000610f2784828501610eee565b91505092915050565b600073ffffffffffffffffffffffffffffffffffffffff82169050919050565b6000819050919050565b6000610f75610f70610f6b84610f30565b610f50565b610f30565b9050919050565b6000610f8782610f5a565b9050919050565b6000610f9982610f7c565b9050919050565b610fa981610f8e565b82525050565b6000602082019050610fc46000830184610fa0565b92915050565b610fd381610ecd565b82525050565b6000602082019050610fee6000830184610fca565b92915050565b6000610fff82610f30565b9050919050565b61100f81610ff4565b82525050565b600060208201905061102a6000830184611006565b92915050565b60008115159050919050565b61104581611030565b82525050565b6000602082019050611060600083018461103c565b92915050565b61106f81610ff4565b811461107a57600080fd5b50565b60008135905061108c81611066565b92915050565b6000602082840312156110a8576110a7610ec8565b5b60006110b68482850161107d565b91505092915050565b60006040820190506110d46000830185610fca565b6110e16020830184610fca565b9392505050565b60006040820190506110fd6000830185611006565b61110a6020830184611006565b9392505050565b60008151905061112081610ed7565b92915050565b60006020828403121561113c5761113b610ec8565b5b600061114a84828501611111565b91505092915050565b7f4e487b7100000000000000000000000000000000000000000000000000000000600052601160045260246000fd5b600061118d82610ecd565b915061119883610ecd565b92508282026111a681610ecd565b915082820484148315176111bd576111bc611153565b5b5092915050565b7f4e487b7100000000000000000000000000000000000000000000000000000000600052601260045260246000fd5b60006111fe82610ecd565b915061120983610ecd565b925082611219576112186111c4565b5b828204905092915050565b600061122f82610ecd565b915061123a83610ecd565b925082820390508181111561125257611251611153565b5b92915050565b600060408201905061126d6000830185611006565b61127a6020830184610fca565b9392505050565b61128a81611030565b811461129557600080fd5b50565b6000815190506112a781611281565b92915050565b6000602082840312156112c3576112c2610ec8565b5b60006112d184828501611298565b9150509291505056fea2646970667358221220d13dc50d70b0dea8fdf7bcef0491248865e4c9e1660aaa3efd1d39faa0122d9a64736f6c634300081a0033a2646970667358221220a032359a13d65f07e22b62bd60f13a8e76ae8fd41e7916c3a6e73d68fcd230c964736f6c634300081a0033","linkReferences":{}},"methodIdentifiers":{"defaultOwner()":"17de2f1f","deployEscrow(bytes32,address,address)":"7d98dc07","escrowExists(address)":"ea73adee","escrowToMerchant(address)":"b582b47b","getEscrowsForMerchant(bytes32)":"e58eb831","getMerchantCounter(bytes32)":"f7cc10d6","getMerchantEscrowCount(bytes32)":"130126a4","getMerchantForEscrow(address)":"579a7e9b","merchantCounters(bytes32)":"3e8dd53f","merchantEscrows(bytes32,uint256)":"fbb91dcd","merchantExists(bytes32)":"f23353b4","owner()":"8da5cb5b","pause()":"8456cb59","paused()":"5c975abb","platformAddress()":"dbe55e56","predictEscrowAddress(bytes32,address,address)":"e3ebd115","renounceOwnership()":"715018a6","setDefaultOwner(address)":"dfd85394","setPlatformAddress(address)":"cc03c342","transferOwnership(address)":"f2fde38b","unpause()":"3f4ba83a"},"id":28}