{"abi":[{"type":"constructor","inputs":[{"name":"_merchantAddress","type":"address","internalType":"address"},{"name":"_paymentTokenAddress","type":"address","internalType":"address"},{"name":"_platformAddress","type":"address","internalType":"address"},{"name":"_owner","type":"address","internalType":"address"}],"stateMutability":"nonpayable"},{"type":"function","name":"BASIS_POINTS","inputs":[],"outputs":[{"name":"","type":"uint256","internalType":"uint256"}],"stateMutability":"view"},{"type":"function","name":"MAX_PLATFORM_FEE","inputs":[],"outputs":[{"name":"","type":"uint256","internalType":"uint256"}],"stateMutability":"view"},{"type":"function","name":"distribute","inputs":[],"outputs":[],"stateMutability":"nonpayable"},{"type":"function","name":"getMerchantAddress","inputs":[],"outputs":[{"name":"","type":"address","internalType":"address"}],"stateMutability":"view"},{"type":"function","name":"getPlatformAddress","inputs":[],"outputs":[{"name":"","type":"address","internalType":"address"}],"stateMutability":"view"},{"type":"function","name":"getPlatformFee","inputs":[],"outputs":[{"name":"","type":"uint256","internalType":"uint256"}],"stateMutability":"view"},{"type":"function","name":"merchantAddress","inputs":[],"outputs":[{"name":"","type":"address","internalType":"address"}],"stateMutability":"view"},{"type":"function","name":"owner","inputs":[],"outputs":[{"name":"","type":"address","internalType":"address"}],"stateMutability":"view"},{"type":"function","name":"pause","inputs":[],"outputs":[],"stateMutability":"nonpayable"},{"type":"function","name":"paused","inputs":[],"outputs":[{"name":"","type":"bool","internalType":"bool"}],"stateMutability":"view"},{"type":"function","name":"paymentToken","inputs":[],"outputs":[{"name":"","type":"address","internalType":"contract IERC20"}],"stateMutability":"view"},{"type":"function","name":"paymentTokenAddress","inputs":[],"outputs":[{"name":"","type":"address","internalType":"address"}],"stateMutability":"view"},{"type":"function","name":"platformAddress","inputs":[],"outputs":[{"name":"","type":"address","internalType":"address"}],"stateMutability":"view"},{"type":"function","name":"platformFeeBasisPoints","inputs":[],"outputs":[{"name":"","type":"uint256","internalType":"uint256"}],"stateMutability":"view"},{"type":"function","name":"renounceOwnership","inputs":[],"outputs":[],"stateMutability":"nonpayable"},{"type":"function","name":"setMerchantAddress","inputs":[{"name":"_merchantAddress","type":"address","internalType":"address"}],"outputs":[],"stateMutability":"nonpayable"},{"type":"function","name":"setPlatformAddress","inputs":[{"name":"_platformAddress","type":"address","internalType":"address"}],"outputs":[],"stateMutability":"nonpayable"},{"type":"function","name":"setPlatformFee","inputs":[{"name":"_feeBasisPoints","type":"uint256","internalType":"uint256"}],"outputs":[],"stateMutability":"nonpayable"},{"type":"function","name":"transferOwnership","inputs":[{"name":"newOwner","type":"address","internalType":"address"}],"outputs":[],"stateMutability":"nonpayable"},{"type":"function","name":"unpause","inputs":[],"outputs":[],"stateMutability":"nonpayable"},{"type":"event","name":"ContractPaused","inputs":[{"name":"account","type":"address","indexed":false,"internalType":"address"}],"anonymous":false},{"type":"event","name":"ContractUnpaused","inputs":[{"name":"account","type":"address","indexed":false,"internalType":"address"}],"anonymous":false},{"type":"event","name":"FundsDistributed","inputs":[{"name":"platformAmount","type":"uint256","indexed":false,"internalType":"uint256"},{"name":"merchantAmount","type":"uint256","indexed":false,"internalType":"uint256"}],"anonymous":false},{"type":"event","name":"MerchantAddressUpdated","inputs":[{"name":"oldAddress","type":"address","indexed":false,"internalType":"address"},{"name":"newAddress","type":"address","indexed":false,"internalType":"address"}],"anonymous":false},{"type":"event","name":"OwnershipTransferred","inputs":[{"name":"previousOwner","type":"address","indexed":true,"internalType":"address"},{"name":"newOwner","type":"address","indexed":true,"internalType":"address"}],"anonymous":false},{"type":"event","name":"Paused","inputs":[{"name":"account","type":"address","indexed":false,"internalType":"address"}],"anonymous":false},{"type":"event","name":"PlatformAddressUpdated","inputs":[{"name":"oldAddress","type":"address","indexed":false,"internalType":"address"},{"name":"newAddress","type":"address","indexed":false,"internalType":"address"}],"anonymous":false},{"type":"event","name":"PlatformFeeUpdated","inputs":[{"name":"oldFee","type":"uint256","indexed":false,"internalType":"uint256"},{"name":"newFee","type":"uint256","indexed":false,"internalType":"uint256"}],"anonymous":false},{"type":"event","name":"Unpaused","inputs":[{"name":"account","type":"address","indexed":false,"internalType":"address"}],"anonymous":false},{"type":"error","name":"EnforcedPause","inputs":[]},{"type":"error","name":"ExpectedPause","inputs":[]},{"type":"error","name":"InvalidAddress","inputs":[]},{"type":"error","name":"InvalidFeeAmount","inputs":[]},{"type":"error","name":"NoBalanceToDistribute","inputs":[]},{"type":"error","name":"OwnableInvalidOwner","inputs":[{"name":"owner","type":"address","internalType":"address"}]},{"type":"error","name":"OwnableUnauthorizedAccount","inputs":[{"name":"account","type":"address","internalType":"address"}]},{"type":"error","name":"ReentrancyGuardReentrantCall","inputs":[]},{"type":"error","name":"TransferFailed","inputs":[]}],"bytecode":{"object":"0x608060405234801561001057600080fd5b5060405161177d38038061177d833981810160405281019061003291906103cd565b80600073ffffffffffffffffffffffffffffffffffffffff168173ffffffffffffffffffffffffffffffffffffffff16036100a55760006040517f1e4fbdf700000000000000000000000000000000000000000000000000000000815260040161009c9190610443565b60405180910390fd5b6100b4816102a660201b60201c565b5060018081905550600073ffffffffffffffffffffffffffffffffffffffff168473ffffffffffffffffffffffffffffffffffffffff1614806101235750600073ffffffffffffffffffffffffffffffffffffffff168373ffffffffffffffffffffffffffffffffffffffff16145b8061015a5750600073ffffffffffffffffffffffffffffffffffffffff168273ffffffffffffffffffffffffffffffffffffffff16145b15610191576040517fe6c4247b00000000000000000000000000000000000000000000000000000000815260040160405180910390fd5b83600260016101000a81548173ffffffffffffffffffffffffffffffffffffffff021916908373ffffffffffffffffffffffffffffffffffffffff16021790555081600460006101000a81548173ffffffffffffffffffffffffffffffffffffffff021916908373ffffffffffffffffffffffffffffffffffffffff16021790555082600360006101000a81548173ffffffffffffffffffffffffffffffffffffffff021916908373ffffffffffffffffffffffffffffffffffffffff16021790555082600560006101000a81548173ffffffffffffffffffffffffffffffffffffffff021916908373ffffffffffffffffffffffffffffffffffffffff16021790555060fa6006819055505050505061045e565b60008060009054906101000a900473ffffffffffffffffffffffffffffffffffffffff169050816000806101000a81548173ffffffffffffffffffffffffffffffffffffffff021916908373ffffffffffffffffffffffffffffffffffffffff1602179055508173ffffffffffffffffffffffffffffffffffffffff168173ffffffffffffffffffffffffffffffffffffffff167f8be0079c531659141344cd1fd0a4f28419497f9722a3daafe3b4186f6b6457e060405160405180910390a35050565b600080fd5b600073ffffffffffffffffffffffffffffffffffffffff82169050919050565b600061039a8261036f565b9050919050565b6103aa8161038f565b81146103b557600080fd5b50565b6000815190506103c7816103a1565b92915050565b600080600080608085870312156103e7576103e661036a565b5b60006103f5878288016103b8565b9450506020610406878288016103b8565b9350506040610417878288016103b8565b9250506060610428878288016103b8565b91505092959194509250565b61043d8161038f565b82525050565b60006020820190506104586000830184610434565b92915050565b6113108061046d6000396000f3fe608060405234801561001057600080fd5b506004361061012c5760003560e01c80639df8ed43116100ad578063dbe55e5611610071578063dbe55e56146102b3578063e1f1c4a7146102d1578063e4fc6b6d146102ef578063f2fde38b146102f9578063f97ffc50146103155761012c565b80639df8ed431461021f578063a3eb6e5b1461023d578063afb18fe71461025b578063c58bfb6614610279578063cc03c342146102975761012c565b80635c975abb116100f45780635c975abb146101b15780636ea8bc10146101cf578063715018a6146101ed5780638456cb59146101f75780638da5cb5b146102015761012c565b806312e8e2c3146101315780633013ce291461014d5780633998a6811461016b5780633c0c4566146101895780633f4ba83a146101a7575b600080fd5b61014b60048036038101906101469190610f03565b610331565b005b6101556103c8565b6040516101629190610faf565b60405180910390f35b6101736103ee565b6040516101809190610fd9565b60405180910390f35b6101916103f4565b60405161019e9190611015565b60405180910390f35b6101af61041e565b005b6101b961046e565b6040516101c6919061104b565b60405180910390f35b6101d7610485565b6040516101e49190610fd9565b60405180910390f35b6101f561048f565b005b6101ff6104a3565b005b6102096104f3565b6040516102169190611015565b60405180910390f35b61022761051c565b6040516102349190611015565b60405180910390f35b610245610542565b6040516102529190611015565b60405180910390f35b61026361056c565b6040516102709190611015565b60405180910390f35b610281610592565b60405161028e9190610fd9565b60405180910390f35b6102b160048036038101906102ac9190611092565b610598565b005b6102bb6106ab565b6040516102c89190611015565b60405180910390f35b6102d96106d1565b6040516102e69190610fd9565b60405180910390f35b6102f76106d7565b005b610313600480360381019061030e9190611092565b610a46565b005b61032f600480360381019061032a9190611092565b610acc565b005b610339610bdf565b610341610c66565b61138881111561037d576040517f52338c8000000000000000000000000000000000000000000000000000000000815260040160405180910390fd5b60006006549050816006819055507fd347e206f25a89b917fc9482f1a2d294d749baa4dc9bde7fb495ee11fe49164381836040516103bc9291906110bf565b60405180910390a15050565b600560009054906101000a900473ffffffffffffffffffffffffffffffffffffffff1681565b61138881565b6000600460009054906101000a900473ffffffffffffffffffffffffffffffffffffffff16905090565b610426610bdf565b61042e610ca7565b7f5b65b0c1363b3003db9bcc5e1fd8805a6d6bf5bf6dc9d3431ee4494cd7d11766610457610d0a565b6040516104649190611015565b60405180910390a1565b6000600260009054906101000a900460ff16905090565b6000600654905090565b610497610bdf565b6104a16000610d12565b565b6104ab610bdf565b6104b3610dd6565b7f81990fd9a5c552b8e3677917d8a03c07678f0d2cb68f88b634aca2022e9bd19f6104dc610d0a565b6040516104e99190611015565b60405180910390a1565b60008060009054906101000a900473ffffffffffffffffffffffffffffffffffffffff16905090565b600260019054906101000a900473ffffffffffffffffffffffffffffffffffffffff1681565b6000600260019054906101000a900473ffffffffffffffffffffffffffffffffffffffff16905090565b600360009054906101000a900473ffffffffffffffffffffffffffffffffffffffff1681565b60065481565b6105a0610bdf565b600073ffffffffffffffffffffffffffffffffffffffff168173ffffffffffffffffffffffffffffffffffffffff1603610606576040517fe6c4247b00000000000000000000000000000000000000000000000000000000815260040160405180910390fd5b6000600460009054906101000a900473ffffffffffffffffffffffffffffffffffffffff16905081600460006101000a81548173ffffffffffffffffffffffffffffffffffffffff021916908373ffffffffffffffffffffffffffffffffffffffff1602179055507f98a658829c402c9165360ccdcf4bfb731b08f78bcd9aa1b584cc4bbcb9002419818360405161069f9291906110e8565b60405180910390a15050565b600460009054906101000a900473ffffffffffffffffffffffffffffffffffffffff1681565b61271081565b6106df610e39565b6106e7610c66565b6000600560009054906101000a900473ffffffffffffffffffffffffffffffffffffffff1673ffffffffffffffffffffffffffffffffffffffff166370a08231306040518263ffffffff1660e01b81526004016107449190611015565b602060405180830381865afa158015610761573d6000803e3d6000fd5b505050506040513d601f19601f820116820180604052508101906107859190611126565b9050600081036107c1576040517f0d7e7ce800000000000000000000000000000000000000000000000000000000815260040160405180910390fd5b6000612710600654836107d49190611182565b6107de91906111f3565b9050600081836107ee9190611224565b905060008211156108f8576000600560009054906101000a900473ffffffffffffffffffffffffffffffffffffffff1673ffffffffffffffffffffffffffffffffffffffff1663a9059cbb600460009054906101000a900473ffffffffffffffffffffffffffffffffffffffff16856040518363ffffffff1660e01b815260040161087a929190611258565b6020604051808303816000875af1158015610899573d6000803e3d6000fd5b505050506040513d601f19601f820116820180604052508101906108bd91906112ad565b9050806108f6576040517f90b8ec1800000000000000000000000000000000000000000000000000000000815260040160405180910390fd5b505b6000811115610a00576000600560009054906101000a900473ffffffffffffffffffffffffffffffffffffffff1673ffffffffffffffffffffffffffffffffffffffff1663a9059cbb600260019054906101000a900473ffffffffffffffffffffffffffffffffffffffff16846040518363ffffffff1660e01b8152600401610982929190611258565b6020604051808303816000875af11580156109a1573d6000803e3d6000fd5b505050506040513d601f19601f820116820180604052508101906109c591906112ad565b9050806109fe576040517f90b8ec1800000000000000000000000000000000000000000000000000000000815260040160405180910390fd5b505b7f40d8c854b6d5329fd5fccae04f5a931d7529963fbab81aced7337394e737cb4d8282604051610a319291906110bf565b60405180910390a1505050610a44610e7f565b565b610a4e610bdf565b600073ffffffffffffffffffffffffffffffffffffffff168173ffffffffffffffffffffffffffffffffffffffff1603610ac05760006040517f1e4fbdf7000000000000000000000000000000000000000000000000000000008152600401610ab79190611015565b60405180910390fd5b610ac981610d12565b50565b610ad4610bdf565b600073ffffffffffffffffffffffffffffffffffffffff168173ffffffffffffffffffffffffffffffffffffffff1603610b3a576040517fe6c4247b00000000000000000000000000000000000000000000000000000000815260040160405180910390fd5b6000600260019054906101000a900473ffffffffffffffffffffffffffffffffffffffff16905081600260016101000a81548173ffffffffffffffffffffffffffffffffffffffff021916908373ffffffffffffffffffffffffffffffffffffffff1602179055507fb2957f4a5be3a3e131df2d649d041ee6b35af38749bdda44eac9afa36a698be78183604051610bd39291906110e8565b60405180910390a15050565b610be7610d0a565b73ffffffffffffffffffffffffffffffffffffffff16610c056104f3565b73ffffffffffffffffffffffffffffffffffffffff1614610c6457610c28610d0a565b6040517f118cdaa7000000000000000000000000000000000000000000000000000000008152600401610c5b9190611015565b60405180910390fd5b565b610c6e61046e565b15610ca5576040517fd93c066500000000000000000000000000000000000000000000000000000000815260040160405180910390fd5b565b610caf610e88565b6000600260006101000a81548160ff0219169083151502179055507f5db9ee0a495bf2e6ff9c91a7834c1ba4fdd244a5e8aa4e537bd38aeae4b073aa610cf3610d0a565b604051610d009190611015565b60405180910390a1565b600033905090565b60008060009054906101000a900473ffffffffffffffffffffffffffffffffffffffff169050816000806101000a81548173ffffffffffffffffffffffffffffffffffffffff021916908373ffffffffffffffffffffffffffffffffffffffff1602179055508173ffffffffffffffffffffffffffffffffffffffff168173ffffffffffffffffffffffffffffffffffffffff167f8be0079c531659141344cd1fd0a4f28419497f9722a3daafe3b4186f6b6457e060405160405180910390a35050565b610dde610c66565b6001600260006101000a81548160ff0219169083151502179055507f62e78cea01bee320cd4e420270b5ea74000d11b0c9f74754ebdbfc544b05a258610e22610d0a565b604051610e2f9190611015565b60405180910390a1565b600260015403610e75576040517f3ee5aeb500000000000000000000000000000000000000000000000000000000815260040160405180910390fd5b6002600181905550565b60018081905550565b610e9061046e565b610ec6576040517f8dfc202b00000000000000000000000000000000000000000000000000000000815260040160405180910390fd5b565b600080fd5b6000819050919050565b610ee081610ecd565b8114610eeb57600080fd5b50565b600081359050610efd81610ed7565b92915050565b600060208284031215610f1957610f18610ec8565b5b6000610f2784828501610eee565b91505092915050565b600073ffffffffffffffffffffffffffffffffffffffff82169050919050565b6000819050919050565b6000610f75610f70610f6b84610f30565b610f50565b610f30565b9050919050565b6000610f8782610f5a565b9050919050565b6000610f9982610f7c565b9050919050565b610fa981610f8e565b82525050565b6000602082019050610fc46000830184610fa0565b92915050565b610fd381610ecd565b82525050565b6000602082019050610fee6000830184610fca565b92915050565b6000610fff82610f30565b9050919050565b61100f81610ff4565b82525050565b600060208201905061102a6000830184611006565b92915050565b60008115159050919050565b61104581611030565b82525050565b6000602082019050611060600083018461103c565b92915050565b61106f81610ff4565b811461107a57600080fd5b50565b60008135905061108c81611066565b92915050565b6000602082840312156110a8576110a7610ec8565b5b60006110b68482850161107d565b91505092915050565b60006040820190506110d46000830185610fca565b6110e16020830184610fca565b9392505050565b60006040820190506110fd6000830185611006565b61110a6020830184611006565b9392505050565b60008151905061112081610ed7565b92915050565b60006020828403121561113c5761113b610ec8565b5b600061114a84828501611111565b91505092915050565b7f4e487b7100000000000000000000000000000000000000000000000000000000600052601160045260246000fd5b600061118d82610ecd565b915061119883610ecd565b92508282026111a681610ecd565b915082820484148315176111bd576111bc611153565b5b5092915050565b7f4e487b7100000000000000000000000000000000000000000000000000000000600052601260045260246000fd5b60006111fe82610ecd565b915061120983610ecd565b925082611219576112186111c4565b5b828204905092915050565b600061122f82610ecd565b915061123a83610ecd565b925082820390508181111561125257611251611153565b5b92915050565b600060408201905061126d6000830185611006565b61127a6020830184610fca565b9392505050565b61128a81611030565b811461129557600080fd5b50565b6000815190506112a781611281565b92915050565b6000602082840312156112c3576112c2610ec8565b5b60006112d184828501611298565b9150509291505056fea2646970667358221220d13dc50d70b0dea8fdf7bcef0491248865e4c9e1660aaa3efd1d39faa0122d9a64736f6c634300081a0033","linkReferences":{}},"methodIdentifiers":{"BASIS_POINTS()":"e1f1c4a7","MAX_PLATFORM_FEE()":"3998a681","distribute()":"e4fc6b6d","getMerchantAddress()":"a3eb6e5b","getPlatformAddress()":"3c0c4566","getPlatformFee()":"6ea8bc10","merchantAddress()":"9df8ed43","owner()":"8da5cb5b","pause()":"8456cb59","paused()":"5c975abb","paymentToken()":"3013ce29","paymentTokenAddress()":"afb18fe7","platformAddress()":"dbe55e56","platformFeeBasisPoints()":"c58bfb66","renounceOwnership()":"715018a6","setMerchantAddress(address)":"f97ffc50","setPlatformAddress(address)":"cc03c342","setPlatformFee(uint256)":"12e8e2c3","transferOwnership(address)":"f2fde38b","unpause()":"3f4ba83a"},"id":27}